:020000040800F2
:10000000A807002091010008B7210008F51D00088D
:10001000B5210008FD050008672200080000000067
:10002000000000000000000000000000BB210008EC
:100030003509000800000000B9210008E921000886
:10004000AB010008AB010008AB010008AB010008E0
:10005000AB010008AB010008AB010008AB010008D0
:10006000AB010008AB010008AB010008B9080008AB
:10007000AB010008AB010008AB010008AB010008B0
:10008000AB010008AB010008AB010008AB010008A0
:10009000AB010008AB010008AB010008AB01000890
:1000A000AB010008AB010008AB010008AB01000880
:1000B000AB010008AB010008AB010008AB01000870
:1000C000AB010008AB010008AB010008AB01000860
:1000D000AB010008AB010008AB010008AB01000850
:1000E000AB010008AB010008AB01000800F002F80A
:1000F00000F03FF80AA090E8000C82448344AAF183
:100100000107DA4501D100F034F8AFF2090EBAE880
:100110000F0013F0010F18BFFB1A43F0010318473B
:100120001030000030300000103A24BF78C878C189
:10013000FAD8520724BF30C830C144BF04680C60ED
:10014000704700000023002400250026103A28BF35
:1001500078C1FBD8520728BF30C148BF0B60704739
:10016000642900F09180002070471FB51FBD10B5B5
:1001700010BD00F066F91146FFF7F7FF02F0ACF88A
:1001800000F084F903B4FFF7F2FF03BC00F08CF930
:100190000948804709480047FEE7FEE7FEE7FEE71B
:1001A000FEE7FEE7FEE7FEE7FEE7FEE70448054957
:1001B000054A064B7047000065220008ED00000864
:1001C000A8010020A8070020A8030020A803002001
:1001D000B2F120030AD5C2F1200320FA02F001FA9D
:1001E00003F321FA02F140EA0300704721FA03F019
:1001F0004FF00001704700000FB41CB5074B06AA72
:100200007B4469460090059800F003F90020694698
:1002100000F012F91CBC5DF814FB00003502000070
:100220002DE9F0410E460446002020622046E16898
:10023000884730B3252805D0D4E901219047206AAA
:10024000401CF2E7E168204600278847050018D0E7
:10025000A5F14100192802D820354FF40067324635
:10026000294620462760FFF77BFF40B1012804D0D4
:10027000F61D26F007060836D8E7361DD6E72846CD
:10028000DAE7206ABDE8F0812DE9F0410646002456
:1002900010687529314616A510D0AFF300800028EC
:1002A00002DA404213A507E031688A0701D512A59A
:1002B00002E0490704D511A5012401E0AFF3008055
:1002C00000210A2206F1240709E0B0FBF2FCB0FB92
:1002D000F2F302FB1C00303078541846491C002809
:1002E000F3D123462A463046BDE8F04100F032B84B
:1002F000000000002D0000002B0000002000000086
:100300004FF0000200B5134694469646203922BFAE
:10031000A0E80C50A0E80C50B1F12001BFF4F7AFF9
:10032000090728BFA0E80C5048BF0CC05DF804EBDB
:10033000890028BF40F8042B08BF704748BF20F849
:10034000022B11F0804F18BF00F8012B7047704747
:10035000704770472DE9F0470D469946924604468E
:1003600000F124080168880604D5E06921F0100135
:10037000216000E00120A84201DD471B00E00027CA
:10038000A1697A1902EB0900081AA0612078C00659
:1003900002D42046AFF30080002608E0D4E9012112
:1003A0001AF806009047206A401C761C20624E45D1
:1003B000F4DB2078C0060AD52046AFF3008006E0C3
:1003C000D4E9012130209047206A401C2062381E69
:1003D000A7F10107F4DC07E0D4E9012118F80500D2
:1003E0009047206A401C2062281EA5F10105F3DC1D
:1003F0002046AFF300802078000602D50220BDE839
:10040000F0870120FBE7000001694A1C02610878BF
:10041000704700B58FB0CDE9013100210591054944
:100420007944CDE9031011466846FFF7F9FE0FB095
:1004300000BD0000E5FFFFFF0A6802F8010B0A603B
:100440007047754600F02CF8AE46050069465346E5
:1004500020F00700854618B020B5FFF7A7FEBDE8DD
:1004600020404FF000064FF000074FF000084FF01B
:10047000000B21F00701AC46ACE8C009ACE8C009AC
:10048000ACE8C009ACE8C0098D46704710B5044619
:10049000AFF300802046BDE81040FFF773BE0000B8
:1004A000004870474801002001491820ABBEFEE714
:1004B000260002007047000070B50446006881689D
:1004C000C943C90717D1816821F00101816000F09B
:1004D0007FFF05460AE000BF00F07AFF401B0228BC
:1004E00004D920688068C043C00706D020688068AF
:1004F000C043C007F0D0002070BDA06A40F01000DB
:10050000A062E06A40F00100E062012070BD10B519
:100510000146406A826A12F0500F05D0006A026BF1
:10052000BDE8104008461047816A41F400718162BD
:1005300001688968C1F3424107290CD1017B51B997
:10054000816A21F480718162816AC90403D4816A5D
:1005500041F00101816200F00DFB10BD10B5406A51
:10056000816A41F040018162C16A41F00401C162C7
:1005700000F002FB10BD10B5406A00F0FCFA10BD9F
:10058000F8B500260446009600688168C943C9078B
:100590002DD0816841F0010181601648164900683C
:1005A000B0FBF1F000E0401E00900028FBD100F00D
:1005B0000FFF054616E000BF00F00AFF401B0228AF
:1005C00010D920688068C043C0070BD0A06A40F0F3
:1005D0001000A062E06A40F00100E06284F824604C
:1005E0000120F8BD20688068C043C007E4D1002026
:1005F000F8BD00003000002040420F00FEE710B5BB
:100600000022012100F087F8BDE81040052000F02D
:1006100021BD10B504460298216022716371A0715A
:100620002820A0720620E0710C2020721420607235
:100630000820E072322000F00DFD00223321204618
:1006400000F069F800223321204600F064F805200C
:1006500000F000FD00223221204600F05CF8052069
:1006600000F0F8FC00222021204600F054F805207C
:1006700000F0F0FCE1790022204600F04CF8217AED
:100680000022204600F047F8617A0022204600F060
:1006900042F8A17A0022204600F03DF80022012114
:1006A000204600F038F820460022BDE81040022124
:1006B00000F031B830B4447900238C4201D8641E74
:1006C000E1B28479944201D8641EE2B232B1012AC7
:1006D00006D0022A06D0032A06D007E00B4605E022
:1006E000403102E0143100E05431CBB230BC43F071
:1006F0008001002200F00FB8012200F00CB870B5A4
:100700000C46054603E02846641CFFF7F5FF2178F8
:100710000029F8D170BD7CB506460807040EF07AB2
:1007200001F0F00518B145F0080544F00804012A6D
:1007300001D02AB108E045F0010544F0010403E0CE
:1007400025F0010524F0010445F004008DF80400B3
:10075000012000F07FFC8DF8055044F004008DF876
:100760000600012000F076FC4FF47A708DF8074007
:1007700000903179042301AA306800F0F3FE7CBDBB
:1007800070B50024322001F091FD0C4D0221284665
:1007900000F014FE50B9642001F088FD02212846C3
:1007A00000F00CFE08B1012400E0FF2402212846DD
:1007B00000F004FE0028F9D1204670BD0008014079
:1007C00070B5054600F056F8FFF7DAFF114C2070BF
:1007D00000F022F8607000F01FF8A07000F01CF824
:1007E000E07000F019F8207100F016F8E0806678EB
:1007F000A17823797218E1780A441A44824207D119
:10080000084602F09FFB2860304602F09BFB6860C0
:1008100070BD0000000000202DE9F0410024144FBD
:1008200001260221384600F0C9FD0028F9D0322007
:1008300001F03CFD0221384600F0C0FD90B1C4F14A
:10084000070106FA01F02843C5B20221384600F03C
:10085000B5FD0028F9D1641CE4B2082CE1D3284688
:10086000BDE8F081C4F1070006FA00F08543ECE72B
:100870000008014010B500F03BF80E4C0221204664
:1008800001F0A6FC00220221204600F09CFD44F26B
:10089000506001F00BFD01220221204600F093FD83
:1008A0001E2001F003FD2046BDE81040022101F0AA
:1008B00085BC000000080140014800F0BBBA000000
:1008C000E000002030B590F840500124AC40C56BEA
:1008D0006C60046863604368102B036803D0996000
:1008E0000068C26030BD9A600068C16030BD000021
:1008F0000E48016821F080710160016841F080714B
:1009000001600B48016821F001010160016841F0BC
:10091000010101600021416000BF00BF00BF4068CD
:1009200008B100207047012070470000FCED00E096
:10093000001000E0704772B6FEE700000649002094
:10094000C8610648016941F004010161016941F093
:100950004001016170470000280100200020024092
:10096000064A0021D16106490A6942F002020A6181
:100970004861086940F04000086170472801002084
:1009800000200240044B0022DA61044A136943F05C
:1009900001031361018070472801002000200240FC
:1009A00014480022C168CB06134904D5CA6942F035
:1009B0000202CA611022C3685B0705D5CB6943F008
:1009C0000103CB6142F00402C369DB0707D0CB69A6
:1009D00043F00403CB61C16921F00101C161A2F5BB
:1009E0008071013901D0C2607047C16921F00101F5
:1009F000C1617047002002402801002070B5054603
:100A000000F0E6FC0646114C09E0681C07D025B151
:100A100000F0DEFC801BA84201D9032070BDE06815
:100A2000C007F2D1E068800601D52020E060E068D0
:100A3000C00605D4E069C00702D1E068400703D5CD
:100A4000FFF7AEFF012070BD002070BD0020024006
:100A500010B586B0044600F0ADFB00200121CDE9C1
:100A600000010294CDE9031004A9684600F004FBDC
:100A700000F056FB06B010BDF8B50024009490F8C5
:100A800024202546012A12D0012280F824204A6819
:100A90001F23072A0DD20668776B521E02EB8202D3
:100AA00093409F430B6893401F43776319E00220F4
:100AB000F8BD06680D2A0AD2376BD21F02EB8202FC
:100AC00093409F430B6893401F43376309E0F76AE5
:100AD0000D3A02EB820293409F430B6893401F4301
:100AE000F7620A68072306680A2A0AD3F7680A3AEF
:100AF00002EB420293409F438B6893401F43F76091
:100B000008E0376902EB420293409F438B689340B1
:100B10001F4337610A68102A01D0112A20D1124BD5
:100B200002689A4217D193681B0219D4936843F460
:100B3000000393600968102912D10C490C4A096816
:100B4000B1FBF2F101EB8101490000E0491E009187
:100B50000029FBD104E0816A41F020018162012477
:100B600080F824502046F8BD0024014030000020C9
:100B700040420F0070477047704700002DE9F04178
:100B80004FF0000704003D467ED0A06A002628B939
:100B9000E66284F82460204600F07EF82046FFF7E5
:100BA0008BFCA16AC90600D420B1A06A40F01000F5
:100BB000A06269E0A16A21F4885141F00201A162BA
:100BC0006268E169237B0A4347EA43010A43A1685B
:100BD0004FF48077B94209D0012907D05FF00001B6
:100BE00094F814C0BCF1010F02D00AE03946F7E7CF
:100BF000F3B1A36A43F02003A362E36A43F0010365
:100C0000E3622368D3F804C02CF4694C4CEA010C6D
:100C1000C3F804C021688B68DFF870C003EA0C03D6
:100C200013438B60A168B9420BD0012909D00CE0B5
:100C3000DFF85CC0A3690CEB43330B4343F4006162
:100C4000DFE7218A0D05A5F580152168CB6A23F41D
:100C500070032B43CB62216889680E4B1940914287
:100C600008D1E662A16A21F0020141F00101A1620E
:100C7000BDE8F081A06A20F0020040F01000A06200
:100C8000E06A40F00100E0620120F1E7FDF7E1FFDA
:100C900000E0FFFFFE0E1FFF70B586B00025064680
:100CA000009501950295039500681A4988422ED156
:100CB0001949886940F400708861886900F40070FF
:100CC0000490886940F0040088618869694600F0F2
:100CD0000400049001200090032001900F4800F0D0
:100CE0007DFA104C0E48C4E900058020C4E902508A
:100CF00040002061800060612020C4E90605204694
:100D000000F042F908B1FFF716FE3462666206B0E1
:100D100070BD0000002401400010024000080140A6
:100D200008000240E00000202DE9F0478946044613
:100D30003B4900683B4F0E1D9046884201D0B842A7
:100D400007D1306810F4702F03D001252846BDE884
:100D5000F08794F8240001280CD0012084F82400A6
:100D60002046FFF70DFC05004FF0000004D084F88A
:100D70002400EBE70220EAE7A16A40F60162914312
:100D800041F48071A1622168B94218D1326812F42D
:100D9000702F14D0A16A41F48011A1623168490515
:100DA00005D5A16A21F4005141F48051A162A16AE4
:100DB000C9040AD5E16A21F00601E16206E0A26AEF
:100DC00022F48012A2624968E9E7E06284F8240014
:100DD000216A15488862216A1448C862216A144849
:100DE000086321686FF0020008602068816841F4A0
:100DF00080718160216843464A464C31206A00F088
:100E0000F1F820688168C1F342410729816803D065
:100E100041F48011816099E741F4A001FAE70000F4
:100E200000240140002801400F0500087705000854
:100E30005D0500082DE9F05FC16B0C6801680B6867
:100E4000D0F840C0042202FA0CF2494DDFF824A188
:100E5000494E4A4FDFF828B1DFF828E122422CD072
:100E60005A072AD50A68920603D40A6822F00402B7
:100E70000A600168A94201D1042219E0514501D15B
:100E8000402215E0B14202D14FF4806210E0B94235
:100E900002D14FF480420BE0594502D14FF4802239
:100EA00006E0714502D14FF4800201E04FF080620C
:100EB0002F4908394A60C16A3BE04FF0020808FA3E
:100EC0000CF818EA040F4FF000094FF0010235D07A
:100ED0005FEA837832D50B689B0605D40B6823F054
:100EE0000A030B6080F821200168A94201D1022287
:100EF00019E0514501D1202215E0B14202D14FF451
:100F0000007210E0B94202D14FF400520BE0594593
:100F100002D14FF4003206E0714502D14FF40012C5
:100F200001E04FF00072124908394A6080F82090C1
:100F3000816A00291AD0BDE8F05F0847082505FA44
:100F40000CF5254212D01B0710D50B6823F00E03B9
:100F50000B6090F84010C36B02FA01F15960826394
:100F600080F8212080F82090016BE2E7BDE8F09F37
:100F7000080002401C0002403000024044000240D1
:100F8000580002406C00024030B528B308C813492D
:100F900014221944B1FBF2F18900C1631049816345
:100FA000022141771A6843F6F0718A43D0E90014B0
:100FB0002143D0E902452C4321430469214344697C
:100FC00021438469214311431960002141630122B7
:100FD00042770177084630BD012030BDF8FFFDBFE4
:100FE0000000024070B5044690F82000002501285A
:100FF0000CD0012084F8200094F821600020012EFC
:1010000006D084F820000225284670BD022070BD5D
:10101000022684F82160A0632068066826F0010695
:1010200006602046FFF74EFCE06A00282068016851
:1010300002D041F00E0106E021F0040101602068B9
:10104000016841F00A0101602068016841F0010176
:101050000160D9E770B5044600F0BAF90546601C96
:1010600002D004480078044400F0B2F9401BA042CA
:10107000FAD370BD240000202DE9F047054626482C
:101080000F460126017E01290FD0012181460176FC
:101090002868DFF888804CF25034022808D0A24635
:1010A0002046FFF7ABFCA8B131E00220BDE8F08795
:1010B0002046FFF7A3FC08BB0120FFF73FFC2046BA
:1010C000FFF79CFCD8F81010064621F00401C8F880
:1010D00010101CE04FF0FF303860AC6811E0204683
:1010E000FFF73EFC5046FFF789FCD8F810100600C9
:1010F00021F00201C8F8101001D03C6007E004F5AF
:101100008064D5E9020100EB8120A042E7D80021EC
:1011100089F818103046C9E7280100200020024055
:101120000348016941F0800101610020704700001F
:10113000002002402DE9F05F07461C488846002445
:10114000017E15461E46012909D0012181460176FE
:101150004CF2503A5046FFF751FC18B122E0022001
:10116000BDE8F09F012F02D0022F00D00427D34604
:10117000DFF83CA0220128463146FFF729F881B26A
:1011800008EB4400FFF7FEFB5846FFF737FCDAF8A0
:10119000102022F00102CAF8102018B9641CE4B231
:1011A000BC42E7D3002289F81820D9E728010020A3
:1011B00000200240064900200A69120607D5054AA8
:1011C0004A60054A4A600969090600D5012070474E
:1011D0000020024023016745AB89EFCD2DE9F84F90
:1011E000DFF8B8910024A9F1040B23460F2709F179
:1011F000040AABF1040EC9E00125A5402A40AA4229
:101200007DD1674ED1F804C0ACEB0608B44532D0AE
:1012100014DCBCF1030F3AD009DCBCF1000F2AD07A
:10122000BCF1010F1CD0BCF1020F31D11DE0BCF1AB
:10123000110F17D0BCF1120F2AD119E0B8F5881F91
:1012400019D006DCB8F5803F15D0B8F5801F1FD146
:1012500011E0B8F5001F0ED0B8F5041F18D10AE050
:10126000CB6815E0CB681B1D12E0CB6808330FE09C
:10127000CB680C330CE08B682BB1012B4FF00803CB
:1012800003D0456104E0042302E0056100E000238F
:10129000FF2A01D8064601E000F104064FEA840562
:1012A00001D9A5F12005D6F8008007FA05FC28EA47
:1012B0000C0803FA05F548EA0508C6F800804D68F1
:1012C000ED0062D5374DAE6946F00106AE61AD69FD
:1012D00024F0030605F001050095334D06EB050CDF
:1012E000DCF80850A607360F07FA06F825EA0805C5
:1012F000DFF8B880404503D14FF0000817E044E024
:10130000DFF8AC80404502D14FF001080FE0DFF874
:10131000A480404502D14FF0020808E0DFF8988031
:10132000404502D14FF0030801E04FF0040808FAED
:1013300006F848EA0508CCF808804D68D9F800603E
:10134000ED024D4601D5164300E096432E604D68F0
:10135000DAF80060AD02554601D5164300E0964329
:101360002E604D68DBF80060AD035D4601D5164385
:1013700000E096432E604D68DEF80060ED03754690
:1013800001D5164300E096432E60641C0D682A4682
:10139000E5407FF431AFBDE8F88F0000080401405C
:1013A0000000111000100240000001400008014040
:1013B000000C01400010014000140140806808400A
:1013C00000D0012070470AB1016170470904FBE7B2
:1013D00001488068704700002400002070B50400B8
:1013E00025D094F83D00002520B984F83C502046D3
:1013F00000F04EF9242084F83D002068016821F0B7
:10140000010101602068016841F400410160206829
:10141000016821F40041016000F012FB4D4A61684F
:10142000914201D84C4900E04C49884201D2012048
:1014300070BD4B492368B0FBF1F15E6826F03F06B2
:101440000E435E606368934206D94FF49673594326
:101450004FF47A73B1FBF3F12368491C1E6A26F03E
:101460003F06314319626168914210D84900401E1D
:10147000B0FBF1F2521CC2F30B02042A01D2042089
:1014800022E0B0FBF1F0401CC0F30B001CE0A268AE
:10149000F2B301EBC10303EB0116431EB3FBF6F3FA
:1014A0005B1C43F480431B0549D092B301EBC1029E
:1014B00002EB0111401EB0FBF1F0401CC0F30B0029
:1014C00040F4804040F400402168CA694CF6FF7344
:1014D0009A431043C861D4E90710014320680268A9
:1014E00022F0C00211430160D4E9030101432068E6
:1014F000826848F2FF339A4311438160D4E90501C1
:1015000008432168CA6822F0FF021043C86001E066
:101510000EE016E02068016841F0010101602564D9
:10152000202084F83D00256384F83E50002070BDE3
:1015300001EB4106431EB3FBF6F35B1CB3E701204E
:10154000C2E701EB4101401EB0FBF1F0401CC0F3CB
:101550000B00B7E7A086010080841E0000093D0053
:1015600040420F002DE9F84F1F4690468A46044638
:10157000DDF82890FFF72CFF054694F83D00202861
:101580007FD11923012240492046009500F0C4FC78
:10159000002876D194F83C00012872D0012084F80C
:1015A0003C0020680168C90703D1016841F00101CE
:1015B00001602068016821F400610160212084F845
:1015C0003D00102084F83E0000262664C4F82480E4
:1015D0006785608D20852D48E0622B464A4651463E
:1015E000204600F01FFC90B9206841698069009096
:1015F00036E02A464946204600F034FD50B1206CC2
:10160000042804D12068016841F4007101600120C0
:10161000BDE8F88F606A216800780861606A401C44
:101620006062618D491E6185218D491E89B22185C7
:1016300022685369DB435B070BD451B1007810611A
:10164000606A401C6062608D401E6085208D401E77
:1016500020852A464946204600F032FC0028CED19B
:10166000208D0028C5D154F83D0B016841F400716C
:101670000160202004F81E09E67766770020C7E79E
:10168000FFE70220C4E70000020010000000FFFF97
:1016900010B586B00021009101910291039100687C
:1016A0000F4988421AD10F4CA06940F00800A06190
:1016B000A069694600F008000490C0200090122044
:1016C0000190032003900848FFF788FDE06940F48B
:1016D0000010E061E06900F40010049006B010BD55
:1016E0000054004000100240000C01400248816894
:1016F000027811448160704724000020074810B52B
:10170000016841F010010160032000F075F80F201E
:1017100000F006F800F024F8002010BD0020024080
:1017200070B50D4D04464FF47A712878B1FBF0F096
:101730000A490968B1FBF0F000F048FB48B9102CE9
:1017400007D200222146501E00F036F800206C60BF
:1017500070BD012070BD000024000020300000207A
:101760000C4808B5816941F001018161816901F08E
:1017700001010091C16941F08051C161C06900F06F
:10178000805000900448416821F0E06141F0007110
:10179000416008BD0010024000000140002809DB44
:1017A00000F01F02012191404009800000F1E0207B
:1017B000C0F8001170470000F0B40E4B1B680C46D7
:1017C000C3F30223C3F10705042D00D90425191D15
:1017D000072901D2002300E0DB1E012606FA05F1ED
:1017E000491E214099409E40761E16403143F0BC70
:1017F00000F03ABD0CED00E0064900F00702086871
:101800004FF6FF03184040EA0220034A10430860E5
:10181000704700000CED00E00000FA052DE9F843E8
:1018200005460078354CC00754D0E0690026C0005A
:1018300008D4E06940F08050E061E069012600F0E2
:10184000805000902E480168C90512D40168804676
:1018500041F480710160FFF7BBFD074605E000BF62
:10186000FFF7B6FDC01B642823D8D8F80000C005D8
:10187000F6D5206A10F4407021D0A98801F4407197
:1018800081421CD0206A1F49012220F440700A6066
:1018900000220A602062C00711D0FFF799FD0746B9
:1018A00041F2883808E000BFFFF792FDC11B4145B7
:1018B00002D90320BDE8F883206A8007F4D5206AA6
:1018C000696820F44070084320621EB1E06920F08E
:1018D0008050E0612878800705D56068A96820F409
:1018E0004040084360602878C00605D56068E96814
:1018F00020F48000084360600020DBE70010024015
:1019000000700040400442422DE9F0470F460500B8
:1019100061D0434E306800F00700B84209D2306809
:1019200020F0070038433060306800F00700B8420C
:1019300051D128683B4C810712D5400703D5606818
:1019400040F4E06060602878000703D5606840F4E8
:10195000605060606068A96820F0F0000843606033
:101960002878C00728D06868012810D0216802288C
:1019700010D0890700292EDA616821F003010143A4
:101980006160FFF725FD804641F288390DE021684E
:101990008903EFE78901EDE7FFF71AFDA0EB0801E6
:1019A000494502D90320BDE8F0876068696800F006
:1019B0000C00B0EB810FEFD1306800F00700B842A7
:1019C0000BD9306820F0070038433060306800F0F1
:1019D0000700B84201D00120E5E72878400705D587
:1019E0006068E96820F4E0600843606028780007D8
:1019F00006D56068296920F4605040EAC100606043
:101A000000F02EF86168084AC1F30311515CC84028
:101A10000649086006480068FFF782FE0020C2E71A
:101A20000020024000100240163100083000002063
:101A300028000020014800687047000030000020A6
:101A40000448054900684968044AC1F30221515C11
:101A5000C8407047300000200010024026310008C6
:101A60000E4A51680E4801F00C03042B11D0082BCC
:101A70000FD10C48C1F38343C903C05C0AD5516838
:101A8000084AC1F34041921E515C054A5043B0FBE5
:101A9000F1F07047044948437047000000100240CD
:101AA00000127A000631000800093D002DE9F84FC8
:101AB000040070D02078C04DC00749D06868C0F3DA
:101AC0008100012807D06868C0F38100022809D18D
:101AD0006868C00306D52868800339D56068002887
:101AE000E7D035E06068B0F5803F0BD010B1B0F5BD
:101AF000A02F11D0286820F480302860286820F4B6
:101B0000802002E0286840F480302860606890B14E
:101B1000FFF75EFC06460AE0286840F48020286053
:101B2000F0E700BFFFF754FC801B642873D82868D7
:101B30008003F7D50CE0FFF74BFC064605E000BF3D
:101B4000FFF746FC801B6428F0D828688003F7D490
:101B500020789A4E80074FF001094FF0000839D5E0
:101B6000686810F00C0F07D06868C0F38100022885
:101B700009D16868C00306D42868800714D5206995
:101B8000012808D110E02069B0B1C6F80090FFF735
:101B90001FFC074605E00AE1FFF71AFCC01B0228FC
:101BA000C4D828688007F7D52868616920F0F80054
:101BB00040EAC10028600DE0C6F80080FFF708FC8D
:101BC000074604E0FFF704FCC01B022823D828685E
:101BD0008007F7D4207800072CD57948A169D9B1BE
:101BE000C0F80090FFF7F4FB074604E0FFF7F0FBB6
:101BF000C01B02280FD8686A8007F7D571484FF4D8
:101C0000FA510068B0FBF1F0009000BF0098411E4F
:101C10000091FAD20EE080E0C0F80080FFF7D8FB18
:101C2000074604E0FFF7D4FBC01B022875D8686A9A
:101C30008007F7D42078400760D5E8690027C00006
:101C400008D4E86940F08050E861E869012700F0B5
:101C5000805000905C480168C90513D40168834630
:101C600041F480710160FFF7B3FB824606E000BFDC
:101C7000FFF7AEFBA0EB0A0064284ED8DBF80000AB
:101C8000C005F5D5E06801280AD008B1052813D0B1
:101C9000286A20F001002862286A20F0040002E08F
:101CA000286A40F001002862E06841F2883B98B160
:101CB000FFF78EFB82460BE0286A40F004002862A2
:101CC000EEE700BFFFF784FBA0EB0A0159455AD8A5
:101CD000286A8007F6D50CE0FFF77AFB824605E01C
:101CE000FFF776FBA0EB0A0159454CD8286A80071C
:101CF000F6D41FB1E86920F08050E861E06988B34C
:101D00006968C1F38101022944D00228C6F86080C5
:101D100004D0FFF75DFB044638E034E0FFF758FBE2
:101D2000074604E0FFF754FBC01B02282BD82868A5
:101D30008001F7D4206AB0F5803F05D16868A168BA
:101D400020F4003008436860D4E90801084369685A
:101D500021F4741108436860C6F86090FFF738FBFF
:101D6000044606E025E000BFFFF732FB001B022817
:101D700009D828688001F7D51BE000BFFFF728FBD2
:101D8000001B022802D90320BDE8F88F28688001D3
:101D9000F4D40EE00128F7D06868226A00F480319C
:101DA000914204D1616A00F47010884201D0012090
:101DB000EAE70020E8E7000000100240000042428D
:101DC00080044242300000200070004010B5401EE8
:101DD000B0F1807F01D3012010BD4FF0E02460619D
:101DE0000F21601700F040FA0020A0610720206159
:101DF000002010BDFEE701684A69D24352050FD4A6
:101E00006FF480624A61002140F8301F2022427343
:101E10008173026942F0040202610173012070477C
:101E200000207047F8B50446C06A1E460D461746A6
:101E3000082807D0012805D010F5803F02D0206B7C
:101E4000122804D12068016841F4807101601346B2
:101E500000224FF001112046009600F05DF840B1DD
:101E600020680068C00502D54FF40070206403208C
:101E7000F8BD2069B0F5804F0ED00620216800EA39
:101E8000D51040F0F000086133463A460B49204631
:101E900000F08AF878B902E005F0FE0000E0E8B250
:101EA00021680861054933463A46891F204600F0FB
:101EB0007BF80028DCD00120F8BD000008000100FC
:101EC00070B516460D4604461EE02046FFF793FF08
:101ED00008B1012070BD681C16D0FFF779FA801B8D
:101EE000A84200D885B920684069C04340070BD597
:101EF000002044F8300F20216173A073216941F064
:101F0000200121612073E4E720684069C043400755
:101F1000DBD4002070BD00002DE9F047984617463D
:101F20000D460446C1F30746DDF820902AE000BFC5
:101F3000B8F1FF3F26D0FFF74BFAA0EB090141456E
:101F400002D8B8F1000F1DD12068012E16D080698B
:101F500025EA00000004000C12D00020B84211D184
:101F6000002044F8300F20216173A073216941F0F3
:101F70002001216120730120BDE8F0874069E7E777
:101F80000120EBE72068012E0AD0806925EA0000D5
:101F90000004000C06D00020B842C9D00020EBE7B6
:101FA0004069F3E70120F7E72DE9F0479846164628
:101FB0000D4604464FF000094FF0200AC1F30747D1
:101FC00023E020684069C043400515D420680168BB
:101FD00041F40071016021686FF480604861C4F8C9
:101FE000309084F83DA084F83E90216C41F00401CB
:101FF000216484F83C9021E0701C06D0FFF7E8F9DA
:10200000A0EB0800B04203D816B1012F1FD021E089
:102010002068012F15D0806925EA00000004000C1B
:1020200018D000BF44F8309F84F80DA084F80E90BB
:10203000216941F02001216184F80C900120BDE864
:10204000F087406925EA00000004000CEAD120680E
:10205000406901E02068806925EA00000004000C66
:10206000AFD1ECE770B516460D4604461EE020469B
:10207000FFF7C1FE08B1012070BD681C16D0FFF744
:10208000A7F9801BA84200D885B920684069C043E1
:1020900000060BD5002044F8300F20216173A07397
:1020A000216941F0200121612073E4E72068406943
:1020B000C0430006DBD4002070BD00003EB5002404
:1020C00011480094019402940E4984600160012536
:1020D0000573047505614FF460214460C161FEF72A
:1020E0004DFD08B172B6FEE707200094CDE901501E
:1020F00069460548FEF7C0FC002801D072B6FEE72D
:102100003EBD000000240140500000202DE9F043B6
:1021100085B00024244800940194029403948169BA
:1021200041F020018161816901F020010491816900
:1021300041F004018161816901F004010491816928
:1021400041F0080181618069DFF8608000F00800DB
:102150000490002202214046FFF735F9DFF8509045
:1021600040F60247002239464846FFF72CF902257F
:102170000126CDE9005669464046CDE90245FFF704
:102180002DF870208DE8510069464046FFF726F88B
:10219000CDE9007669464846CDE90245FFF71EF8CD
:1021A00005B0BDE8F08300000010024000080140C7
:1021B000000C0140FEE7FEE7704770471FB50022A4
:1021C00000910192029203926946FFF707F81FBD42
:1021D0001FB5002200910121CDE9011202210391D6
:1021E0006946FEF7FBFF1FBDFFF780BA30B593B01D
:1021F00028216846FEF784F814210AA8FEF780F823
:10220000002501200F9510951195010412958DE878
:10221000230004904FF4E010CDE908100224079445
:102220006846FFF743FC08B172B6FEE70AA90F2023
:1022300081E831004FF48060CDE90D0502210AA844
:10224000FFF762FB08B172B6FEE74FF40040119051
:102250000F940FA8FFF7E2FA002801D072B6FEE74C
:1022600013B030BD7047FEE70907090E002804DBF4
:1022700000F1E02080F80014704700F00F0000F13A
:10228000E02080F8141D704706484FF48061827882
:10229000C37805489A4201D2012200E00022FFF7EC
:1022A00092B8000008000020000C014031B5084D34
:1022B0006C68FFF7BFFB0749B0FBF1F0009948439A
:1022C000009068680099001B8842FAD338BD00006E
:1022D000001000E040420F0008B5FFF70FFAFFF7CB
:1022E00085FFFFF713FF3E48416941F0010141615D
:1022F0004069002200F00100009011460B20FFF71A
:102300005BFA0B20FFF74AFAFFF7D8FE364835494B
:10231000002401603549C0E901144FF48041C0E94F
:10232000034144618461C4610462FFF757F808B156
:1023300072B6FEE702202C49009010234E2201F1D4
:102340005400FEF766F928485430FEF758F9284F34
:102350003888284D244EDFF8A0B0E87005F1060853
:102360004FF064094FF0663A4C3E22491E48012264
:10237000891D3038FEF7D8FCB8F80000B0FBF9F042
:10238000288100F082FC52465B4600F091FC00225E
:102390001A4B00F0F5FA00F0C1FA286100F074FA67
:1023A000F07901280DD13846FEF752FBFEF702FF07
:1023B000EA78002339460120FEF7BCFEFEF7B0FEA6
:1023C000F471F07830B1012807D00228CDD100F0A7
:1023D00065F9CAE700F014F8C7E700F0BBF8C4E7F6
:1023E000001002400054004080000020A086010040
:1023F00000FC00080800002066660A4000FEAF40AE
:10240000FEB5FFF741FF002211464448FEF752F99E
:1024100043A14248FEF773F9002208213F48FEF726
:1024200049F941A13D48FEF76AF900220E213B48D7
:10243000FEF740F93E4D3FA168466A78FDF7DCFEA5
:1024400069463648FEF75BF9012200213348FEF762
:1024500031F939A13148FEF752F9AA7835A101A81E
:10246000FDF7CAFE01A92D48FEF749F901220A210C
:102470002A48FEF71FF932A12848FEF740F92A79C9
:102480000A2A04D230A12548FEF739F92A7929A170
:1024900002A8FDF7B1FE02A92048FEF730F92B4C47
:1024A00020212046FEF78AFF0026012800D12E7049
:1024B00020212046FEF782FF00282DD12878002811
:1024C0002AD1FEF785FFE968144C401A973C012891
:1024D0000AD92078401CC0B22070022801D90320FC
:1024E0002070FEF775FFE8602078022814D10B49B0
:1024F0000120A039C870667028700848FEF77FF880
:10250000134C00224FF480612046FEF75CFF00224E
:10251000E1142046FEF757FFFEBD0000D400002066
:102520004155544F0000000054656D70203A000082
:10253000080000202564000048756D203A00000066
:10254000485F4C3A000000003000000000080140E5
:10255000000C0140FEB5002211464248FEF7AAF8E1
:1025600041A14048FEF7CBF8002208213D48FEF784
:10257000A1F83FA13B48FEF7C2F83F4D3FA1684696
:102580006A78FDF739FE69463648FEF7B8F8012249
:1025900000213448FEF78EF839A13248FEF7AFF833
:1025A000AA7836A101A8FDF727FE01A92D48FEF75C
:1025B000A6F801220A212B48FEF77CF832A129480F
:1025C000FEF79DF82A790A2A04D231A12548FEF7A0
:1025D00096F82A7929A102A8FDF70EFE02A9214842
:1025E000FEF78DF800F016F92A4C20212046FEF760
:1025F000E5FE0226012800D12E7020212046FEF79C
:10260000DDFE00282DD1287802282AD1FEF7E0FE31
:10261000E968144C401A0327973C012809D96078CF
:10262000401CC0B26070022800D96770FEF7D0FE6F
:10263000E8606078022814D10A484FF48061A0381D
:10264000C6700020A070144C02462F702046FEF782
:10265000BAFE002202212046FEF7B5FE0148FDF732
:10266000CEFFFEBDD40000204D414E55414C000030
:1026700054656D70203A00000800002025640000B9
:1026800048756D203A0000004761733A0000000071
:102690003000000000080140000C01402DE9F84323
:1026A000002205215248FEF705F852A15048FEF7D6
:1026B00026F8012211464E48FDF7FCFF4FA14C4879
:1026C000FEF71DF84F4D50A16846EA78FDF794FDDE
:1026D00069464748FEF713F8DFF83081402140464D
:1026E000FEF76CFE424C02270026973C28B91021C9
:1026F0004046FEF763FE012806D0267210214046B0
:10270000FEF75CFED8B120E0FEF762FEE968401AF1
:10271000012809D9207A401CC0B22072012800D9B2
:102720002772FEF755FEE860207A0128E6D1E878A6
:10273000401CC0B2E8706328E0D9EE70DEE74021AB
:102740004046FEF73BFE012808D06672202147462E
:102750004046FEF733FE012817D018E0FEF738FE9A
:10276000E968401A012809D9607A401CC0B2607239
:10277000012800D96772FEF72BFEE860607A012815
:10278000E4D1E878401EE870E0E7042028702021BA
:102790003846FEF713FE002827D12878042824D1D4
:1027A000FEF716FEE968401A01280AD9A078401CF5
:1027B000C0B2A070022801D90320A070FEF708FE65
:1027C000E860A078022810D1094F0520A03FFE70D4
:1027D000267028700648FDF712FF00224FF4806132
:1027E0000B48FEF7F0FD0120F871BDE8F88300000A
:1027F000D400002053455454494E470048756D3A63
:1028000000000000080000202564000000080140CE
:10281000000C014070B510211748FEF7CFFD174C92
:10282000A4F1090558B10020A071AA7914484FF409
:10283000806102B10122BDE87040FEF7C4BDFEF721
:10284000C7FD104EF168401A01280AD9A079401C32
:10285000C0B2A071022801D90320A071FEF7B8FD13
:10286000F060A0790228E0D1A87910B10020A87109
:10287000DBE70120FBE70000000801403D000020ED
:10288000000C01400800002070B51F4C10212046AC
:10289000FEF794FD012836D140212046FEF78EFD3B
:1028A000012830D1FEF794FD184D194CE968401A03
:1028B000B0F52F7F05D9E078401CE070FEF788FD69
:1028C000E8602079E17888421DD010481430FDF787
:1028D00077FF0E4E1436306800F014FB6870706895
:1028E00000F010FBA8700B49286900F03FFB00F0D6
:1028F000DDFA4FF06632084B00F042F800F098F92C
:102900002871E078207170BD0008014008000020A7
:102910003D0000200000C84266660A4021F00042E7
:10292000A2F16052B2F5801F01F0004328BFD2F13E
:102930007F6C0BD95FEA001C43EAC20242EB507085
:1029400018BF704728BF20F001007047B2F5801F04
:10295000BCBF184670474FEA410C1CF5001F02D25D
:10296000084600F0CABB70B500F04CFA00000089C0
:10297000FFF7F6BF4FF00040A0F580007047000061
:102980002DE9C04130B4DFF8A0C23CEA111418BFF1
:102990003CEA131400F0EC8081EA03051CEA1114F0
:1029A00044EAD57418BF1CEA131500F0C780A4EBE5
:1029B00005044FF0004545EAC12145EAC32341EA39
:1029C000505143EA525304F17F74994204F50034A4
:1029D0004FEAC0204FEAC22208BF904200F09C801C
:1029E0004FEA13650FF24016765D4FEA134506FB7A
:1029F00005F7C7F1807706FB07F74FEAD737A7FB44
:102A000003687642C8F58038A7FB06CE38BFA8F128
:102A1000010807FB08E64FF0000EA6FB028CE6FB60
:102A200003CEDCF1000CCEF1004E38BFAEF1010E4A
:102A3000A6FB0C584FF000074FF00005E6FB0E8791
:102A4000A1FB08C6A0FB07CE16EB0E0645F100055C
:102A5000E1FB076515F1E04E7EBFA4F580345FEA27
:102A600046066D4116F1800745F100054FEA17272C
:102A70004FEA066647EA0567A6F1DE46B6F1805FD3
:102A80004FEA15251FD9384624F0010C05EBC47117
:102A9000BCF1FE6F01EB0C1102D8F0BCBDE8008167
:102AA00024425CBF01F5801E9EEAC47F02D4F0BCC4
:102AB000BDE80081244238D4F0BCA1F1C041BDE89A
:102AC000004100F0EDB94FEAD22242EA43524FEA08
:102AD000D323A7FB02864FEAD02040EA415007FBF0
:102AE00003661EEA0E0F4FEAD12105FB026658BFAE
:102AF000A6EB0056B6EB00564FEA520E4EEAC37EE6
:102B000018EB0E0E56EB530EBDD518EB02085E41C6
:102B10007F1C55F10005B6E74FF480154FF0000714
:102B20004FF000064FF00008ADE7F0BC4FF000009A
:102B300001F1C04101F00041BDE8008111EA0C1F24
:102B40000CEA131500D00CE013EA0C1F00F02580EE
:102B50004FF00000F0BC81EA030101F00041BDE844
:102B60000081F0BCBDE8004181EA030100F098B9A2
:102B7000F0BCBDE8004170B500F044F9097EFC3EB0
:102B800000F007B881EA03014FF0000001F00041B6
:102B9000704781EA030100F083B9F0BCBDE8004151
:102BA0004FF0000021497047FFFDFBF9F7F5F4F203
:102BB000F0EEEDEBE9E8E6E4E3E1E0DEDDDBDAD8D8
:102BC000D7D5D4D3D1D0CFCDCCCBCAC8C7C6C5C436
:102BD000C2C1C0BFBEBDBCBBBAB9B8B7B6B5B4B34D
:102BE000B2B1B0AFAEADACABAAA9A8A8A7A6A5A438
:102BF000A3A3A2A1A09F9F9E9D9C9C9B9A999998FC
:102C00009797969595949393929191908F8F8E8E9E
:102C10008D8C8C8B8B8A898988888787868585842B
:102C200084838382828181800000FF070000F87F17
:102C30004FEA1153A3F58063D3F11E03A8BFD3F16C
:102C4000200C08DB4FF0004242EAC12252EA505207
:102C500032FA03F0704709420BD4102BC4BF002096
:102C6000704703F5787CBCF1FF3F05D04FF0FF3093
:102C700070474FF00000704770B500F0C3F800BF18
:102C80004992248000207047F0E7B0FA80F310FAF0
:102C900003F10AD0C3F11D0303F580634FEA4150ED
:102CA0004FEA035202EBD12170474FF0000070470A
:102CB000DFF848C170B51CEA111E1EBF1CEA1315CF
:102CC0009EEA0C0F95EA0C0F00F06F8081EA030476
:102CD00023EA4C134EEAD47E21EA4C1141F48011D0
:102CE00043F48013AE44A1FB024CA0FB0365AEF19C
:102CF0007F7E361955EB0C05A1FB034C4CF100030C
:102D0000A0FB021C16EB0C06654153F100030942BF
:102D100018BF46F0010613F4007F0BD14FEA0331D0
:102D20004FEA0530340341EA155140EA16506FF07E
:102D300003020AE04FEAC3214FEAC520F40241EA48
:102D4000555140EA56506FF0020202EB2E4201EB61
:102D5000025585EACE710AD05FEA440C18BF24F010
:102D6000004450F1000041F1000120EAD47040F22B
:102D7000FE7C624500D270BDA84214BF4FF0804473
:102D80004FF04044002E08BF0024BEF1806FA8BF62
:102D9000A1F1C041BDE8704080F282804FF0000098
:102DA00001F1C04101F0004170479EEA0C0F0CEAAE
:102DB000131518BF95EA0C0F06D04FF0000081EAFA
:102DC000030E0EF0004170BD00F01CF88900013EBA
:102DD00000F007B800F009B84FEA430C5FEA5C5C0A
:102DE00008D081EA030100F05BB84FEA410C5FEACA
:102DF0005C5CF6D14FF00000014970470000FF070E
:102E00000000F87F0EF1020E2EF0030E5EF8046B48
:102E1000364205D4012A43EB030515F5001F12D8ED
:102E2000012841EB010C1CF5001F0CD80ED14FEA14
:102E3000D17C15F5001F0CEB4C0C0CF1020C08BFFB
:102E40004CEBD37C04E04FF0080C01E04FEAD37C5C
:102E50000CEB4C0526FA05F606F00706B6F1040C55
:102E600006D20EEB860CBDE870404CF0010C6047BA
:102E7000DFE80CF0090B02024FF000414FF00000B8
:102E8000A1F5002170BD19461046012851EB01043F
:102E900018BFD4F5001484BF002001F0004170BDBC
:102EA0000808A0F500114FEA3101704743004FEACE
:102EB000D30C4FEA3C0C43401FBF40070CF160515C
:102EC00013F0FE4F70471CF0006F03D100200CF090
:102ED000004170470CF0004343EA507010B540EADF
:102EE000CC0000F0C4F800BF000000924FEA0001DF
:102EF000FFF7D6BF4FF000414FF00000A1F50021D1
:102F000070470000C10DD1F19E0206DB4FEA00239D
:102F100043F0004323FA02F07047004207D54FEA1E
:102F20004001B1F1FE4F02D24FF00000704710B5E2
:102F300000F09DF849922480002070476FEA20003D
:102F400070470000B0FA80F310FA03F2C3F19D035A
:102F50000AD0D90501EB1220530638BF704700F1A3
:102F6000010008BF20F00100704700004FF47F0C03
:102F70001CEAD0121EBF1CEAD11392EA0C0F93EA8E
:102F80000C0F00F0478090EA010F48BF42F48072B6
:102F90004FF0004C4CEA00204CEA012102EB030206
:102FA000A0FB0113A2F50002002918BF43F00103A2
:102FB0005B0028BF4FEA330342EB22425FEA132C47
:102FC0004CEBC2502EBFBCEB436FB2F57C0F704789
:102FD0004FEA036CBCF1004F08BF20F00100B2F5CE
:102FE0007C0F38BF70470BD582F0FF0212F5803F8F
:102FF000C8BF704700F1C040D8BF00F00040704724
:1030000000F5000C5FEA4C0C48BF7047B0F1C040BF
:1030100000F073B890EA010F0CEAD11348BF42F4F4
:103020008072624538BF634504D280EA010000F037
:103030000040704710B500F01AF800BF8900013E4B
:1030400000F007B800F009B85FEA410C5FEA1C6CB9
:1030500008D080EA010000F050B85FEA400C5FEA57
:103060001C6CF6D14FF00040A0F5800070470EF1C7
:10307000020E2EF0030E5EF8044B244204D44FEAF5
:103080004102B2F17F4F11D84FEA4003B3F17F4FB5
:103090000CD80ED14FEAD07CB2F17F4F0CEB4C0C28
:1030A0000CF1020C08BF4CEBD17C04E04FF0080C93
:1030B00001E04FEAD17C0CEB4C0324FA03F404F05A
:1030C0000704B4F1040C06D20EEB840CBDE81040EA
:1030D0004CF0010C6047DFE80CF0070802024FF0EB
:1030E0000040A0F5800010BD0846420018BFD2F194
:1030F000807288BF00F0004010BDFF2141EAD0502F
:10310000C0057047010202030405060708090A0BFF
:103110000C0D0E0F10100000000000000000010256
:103120000304060708090000000001020304000070
:103130005031000800000020340000002801000881
:1031400084310008340000207407000044010008A6
:10315000000000000000000000000000000000006F
:10316000000000000000000000000000000000005F
:10317000000000000100000010000000000000003E
:043180000024F40033
:04000005080000ED02
:00000001FF
